:020000040800F2
:1000000000500020394F0008E94F0008E94F000870
:10001000E94F0008E94F0008E94F00080000000020
:10002000000000000000000000000000E94F000890
:10003000E94F000800000000E94F0008C51700085C
:10004000E94F0008E94F0008E94F0008E94F0008B0
:10005000E94F0008E94F0008E94F0008E94F0008A0
:10006000E94F0008E94F0008E94F0008E94F000890
:10007000E94F0008E94F0008A9190008E94F0008F6
:10008000E94F0008E94F0008E94F0008E94F000870
:10009000E94F0008E94F0008E94F0008E94F000860
:1000A000E94F0008E94F0008E94F0008790D000802
:1000B000E94F0008E94F0008E94F00086D08000803
:1000C000BD0B000871080008B90B0008E94F0008D3
:1000D000E94F0008E94F0008E94F0008E94F000820
:1000E00091150008E94F0008E94F000800000000E2
:1000F0000000000000000000000000000000000000
:0C01000000000000000000005FF808F1A3
:10010C0010B5054C237833B9044810B10448AFF34B
:10011C0000800121217010BDCC04002000000000E3
:10012C001857000808B5064B1BB106480649AFF333
:10013C0000800648016811B1054A02B1904708BD1C
:10014C000000000018570008D0040020CC04002048
:10015C0000000000034B044A93F8280000F007014C
:10016C00505C7047520500200C540008054B93F866
:10017C002810C1F34100421C01F00103D118880082
:10018C00704700BF5205002008B5FFF7E3FF114987
:10019C00142291F827300F3053430F4A91F828104E
:1001AC00D2580E4B4343B3FBF2F000F5FA6301F067
:1001BC000800C1B229B10A48B0FBF2F202F57A711B
:1001CC005B184FF47A7203F2E730B0FBF2F0504355
:1001DC0008BD00BF5205002000000020401F7D001C
:1001EC0000EEBA0B08B51A4B1A491A688A4201D0AC
:1001FC00194803E05868292804D0184802F0C6FAB8
:10020C00002008BD164A99680023002B12F8010B38
:10021C004FEA4303B8BF43F0010343401148824205
:10022C00F3D1994201D01048E8E70D4B1978072912
:10023C0001D00E48E2E70E4A0E4953F8040B8B42EC
:10024C0042F8040BF9D11B780120137008BD00BFD4
:10025C0000FC01081CBEC1DED4540008E7540008A1
:10026C0010FC010839FC0108F95400080F5500086E
:10027C005205002038FC01081FB5264A29238DE8B9
:10028C000C0000231A462449002B4FEA4303B8BF45
:10029C0043F00103505C0132292A83EA0003F2D1B6
:1002AC00029302F08BFC342002F0E8FC1B4802F0B5
:1002BC00B1FE042826D1002404F1006303F5FE30BE
:1002CC005DF8041002F020FE042805D002F08EFC2C
:1002DC00134802F05BFAFEE70434102CECD1114CFD
:1002EC0011492046615802F00FFE042805D002F097
:1002FC007DFC0E4802F04AFAFEE70D4804348442B5
:10030C00EED102E00B4802F041FA04B0BDE8104017
:10031C0002F06CBC1CBEC1DE5205002000FC0108C2
:10032C002455000810FC01084209FE173D55000831
:10033C003CFC0108565500081B4B07221A705A73D7
:10034C006FF03F006FF012025871DA715A726FF051
:10035C006D0119206FF00102997118729A726FF089
:10036C0052006FF021020521D8721A7399730F4B4A
:10037C0082B018689A880090ADF804200023D8B297
:10038C00094A032898BF1DF8031003EB020088BF2D
:10039C0000210133182BC173F1D1022182F82710EF
:1003AC0082F8281002B0704752050020145400083F
:1003BC001C4B002270B55A729A72DA721A730424AA
:1003CC00184D013CD5F8096004F0E6FFFF2190FBC5
:1003DC00F1F303FB1100360286190C40C5F80960D5
:1003EC00EED1104A1119CB7BD3B104F0D5FF3221D9
:1003FC0090FBF1F202FB11000023C0B2A3420CD21D
:10040C00084AD118C97B814202D1013CE4B201E017
:10041C001219D0730133DBB2F0E70134E4B2E0E738
:10042C0070BD00BF52050020144B012004219870B0
:10043C0002201970D8705971032005211871997117
:10044C0006200721D8711972212020210022587210
:10045C009972FF201E215A709A73D8731A745A74A9
:10046C009A74DA7419755A756FF047000A220B21C9
:10047C009A75D87519765A76704700BF38050020E2
:10048C0010B502F09BFB342002F0F8FB164802F08A
:10049C00C1FD042821D11448144902F035FD04286B
:1004AC0005D002F0A3FB124802F070F9FEE71148E8
:1004BC0002F06CF9104C114B2046E15802F024FD6F
:1004CC00042805D002F092FB094802F05FF9FEE720
:1004DC000B4804348442EED102E00A4802F056F98B
:1004EC00BDE8104002F082BB00F401081CBEC1DE66
:1004FC006B5500088955000804F401083411FE17E7
:10050C0020F401085655000808B50F4B0F481A681F
:10051C00824208D00E4802F039F9FFF785FFBDE89A
:10052C000840FFF7ADBF0B4B0B4A0C4953F8040BBB
:10053C008B4242F8040BF9D11B8809481380BDE8A3
:10054C00084002F023B900BF00F401081CBEC1DE54
:10055C00A755000804F40108380500201CF4010814
:10056C00B755000838B5174B1748197802F00EF933
:10057C000025144C29462A1914485278013502F0EA
:10058C0005F90D2DF5D1A17B114802F0FFF8E17BA7
:10059C00104802F0FBF821690F4802F0F7F8A18A25
:1005AC000E4802F0F3F8A17D0D4802F0EFF8B4F814
:1005BC0017100C4802F0EAF80B48617EBDE8384091
:1005CC0002F0E4B838050020C7550008D2550008E1
:1005DC00DF550008EA550008F555000800560008DC
:1005EC000B56000816560008215600082DE9F0415C
:1005FC009A4C2068838A9BB213F0010230D0018898
:10060C0021F400631A04110C0180012102F060FF37
:10061C00637900202071B3B1A27912B9E479FF2C6F
:10062C0011D18E4B01221C7A9A71022C05D11868BB
:10063C0001888AB242F400640480597A1868012255
:10064C0002F082FFF6E0854C0022617A206802F00D
:10065C007BFFE179FF2900F0ED80FF202071E9E0BC
:10066C0003F00201C9B2002938D0BFF35F8F267A9C
:10067C00012E354613D163798BB1A17979B111462D
:10068C0002F026FFBFF35F8F20683146038B02F028
:10069C0013FFA67220684FF480613246C8E0038BCA
:1006AC00BFF35F8F6D4C227A2146022A08D1637901
:1006BC0033B1A27922B1002102F00AFF2068B4E024
:1006CC00097A664C032905D163791BB1A279002AFA
:1006DC0040F0AB804FF480610122A9E003F00405E7
:1006EC00EDB2002D5ED063790125A572002B3FD0B1
:1006FC00A279002A3CD0277A022F23D902F0E8FEF7
:10070C0020682679E76802F01CFF4FFA86F8711909
:10071C0007F8080021712068294602F0CDFE2068F8
:10072C002679E768A57202F00CFF4FFA86F807F8F5
:10073C000800761920684FF480612A46267102F071
:10074C00F5FE26E0294602F0B7FE20682579E6681A
:10075C0002F0F7FE6FB26A1CF055D0B2207147B2AE
:10076C002068E66802F0EDFE0335F055257110E0C7
:10077C003A4C0121A3790BB9227C32B102F09CFED8
:10078C0036490C79631C0B7103E002F089FE0120E1
:10079C00A071324C2268138803F4807081B2002956
:1007AC00F9D147E003F040010E46F1B12679E76834
:1007BC0002F0C7FE4FFA86F8711C07F80800C8B2A1
:1007CC00237A42B2D61CB342207105D120684FF473
:1007DC0080612A4602F0AAFE204C2379207A59B275
:1007EC00884227D15A1C227124E01B0622D523797A
:1007FC005DB26A1C0FD061690133495D237102F04F
:10080C009EFE207A94F90420904213D120684FF474
:10081C00806132460CE02171E17902F090FE607942
:10082C0008B9247A34B90D4A10684FF4806100225B
:10083C0002F07CFE094C237A94F90400591C88427E
:10084C000AD1A37A0022A27123B120684FF440711F
:10085C0002F06CFE00222276BDE8F081E804002054
:10086C00FFF7C4BEFFF7C2BE70B588B04FF440644A
:10087C001C2306460225514802A98DF80B30ADF811
:10088C0008408DF80A5002F072FC4D4814210660A5
:10089C008DF80F10494803A9ADF80C408DF80E5097
:1008AC0002F065FC2146454802F0CBFC0824434885
:1008BC004FF4806102F0B3FC18B90A2000F0AAFFD3
:1008CC00F5E74FF480613D4802F0BDFC0A2000F0D2
:1008DC00A1FF3A484FF4806102F0B3FC0A2000F00B
:1008EC0099FF621E12F0FF04E1D14FF4006133480E
:1008FC0002F0A9FC0A2000F08DFF4FF480612F4814
:10090C0002F0A1FC0A2000F085FF4FF480612B4817
:10091C0002F097FC0A2000F07DFF022527484FF4D7
:10092C00006102F08EFC8DF80E50254D1C2303A99E
:10093C004FF4406621488DF80F30ADF80C6002F092
:10094C0016FC286802F0F6FC04A802F077FD286873
:10095C0022464FF4407102F0E9FD1A4A4BF6FF7043
:10096C004FF48041ADF81600ADF81C102868012139
:10097C000492ADF8144002F06FFD04A9286802F04F
:10098C00F3FC4FF4A06001F02BFF012022238DF823
:10099C00070001A88DF804308DF805408DF806404D
:1009AC0001F028FF212101A826468DF804108DF8AE
:1009BC00054001F01FFF08B070BD00BF000C0140E6
:1009CC00E8040020801A060010B540001F4CC0B28D
:1009DC006072E17101200021217460712272207615
:1009EC0020686176E3606361838803F4007291B2DE
:1009FC00A1B9038803F4807291B241B9038803F45E
:100A0C00007291B20029F9D1012102F049FD0F4881
:100A1C004FF440710068012202F088FD47F2305318
:100A2C000A4A107E114610B1013BF9D100E043B9DE
:100A3C004A8B501C83B208684B83FFF715FF0020CC
:100A4C0010BD537E83F0010010BD00BFE8040020F0
:100A5C0030B54000264CC5B285B000206572E171FE
:100A6C000DEB00050121102A217465616071E560B0
:100A7C0022722176607638D8C1B2914204D2195CC8
:100A8C000DF800100130F7E72068838803F400723A
:100A9C0091B2A1B9038803F4807291B241B9038871
:100AAC0003F4007291B20029F9D1012102F0F8FC93
:100ABC000F484FF440710068012202F037FD47F2F5
:100ACC0030530B4A107E114610B1013BF9D100E0B6
:100ADC0043B94A8B501C83B208684B83FFF7C4FEA2
:100AEC00002002E0537E83F0010005B030BD00BF52
:100AFC00E804002007B502AB03F8012D0122FFF733
:100B0C00A7FF0EBD284B37B51868828A91B20091A9
:100B1C00009A12F4706F01D001215976009B13F4E6
:100B2C00E06F35D0028B91B20191019B00224FF402
:100B3C008061019302F0FAFC0098820528D41A4DCA
:100B4C002868028802F400718BB20BBB048804F491
:100B5C00807294B29CB1018801F480739AB2002A1D
:100B6C00F9D1012102F0A8FC0F480068018801F4BA
:100B7C0000739AB2002AF9D1FFF776FE08E0012142
:100B8C0002F09AFC28684FF44071224602F0CEFC29
:100B9C00054801688B8A23F4706213041A0C8A824C
:100BAC00002101763EBD00BFE8040020FFF7AABF7C
:100BBC00FFF7A8BF014B588B80B27047E8040020A8
:100BCC0030B585B0044601A80D4603F032FB0B4B43
:100BDC000B481A68013DB2FBF0F14B1E0022204677
:100BEC0001A9ADF80850ADF80430ADF80A20ADF805
:100BFC00062003F0C5F905B030BD00BF8C00002005
:100C0C0040420F0037B5044601A80D4602F0FFFA2A
:100C1C00022018238DF8060001A92046ADF80450D7
:100C2C008DF8073002F0A3FA3EBDF0B585B004464E
:100C3C00684616461F460D4603F004FB0021702340
:100C4C0001208F420CBF02270F464FF48072ADF883
:100C5C000030ADF80200ADF80410ADF80660ADF848
:100C6C000870ADF80C200C2D2BD8DFE805F0072A06
:100C7C002A2A102A2A2A192A2A2A220020466946B8
:100C8C0003F0C8F92046082103F0FDFB19E02046CB
:100C9C00694603F003FA2046082103F0FCFB10E040
:100CAC002046694603F03EFA2046082103F0FDFB7E
:100CBC0007E02046694603F077FA2046082103F046
:100CCC00FCFB05B0F0BD13B5044601A802F09FFA79
:100CDC004FF48071ADF804101CB118208DF807008A
:100CEC0005E0102306488DF8073002F0AAFA02211D
:100CFC008DF80610024801A902F039FA1CBD00BF9C
:100D0C00000801400F2830B529D8154B002223F8D4
:100D1C001010144B144C1419647884421BD11C7899
:100D2C000C2C18D8DFE804F0071717170B17171738
:100D3C000F171717130053F80C4CA1860BE053F840
:100D4C000C4C218707E053F80C4CA18703E053F8B7
:100D5C000C4CA4F84010013210330A2ADAD130BD01
:100D6C007C050020285400083805002010B5174CCD
:100D7C000221204603F0FCFD012826D10221204649
:100D8C0003F001FE124B13491A780888904216D9C9
:100D9C001978114830F81120013190B2CAB21A708A
:100DAC000E4BA0851988081A82B21A8019880C4A31
:100DBC0088B2B2F81710884207D2198010BD074AC2
:100DCC001188002288B2A0851A7010BD002C014039
:100DDC0004050020500000207C0500209C0500200C
:100DEC0038050020114AF8B50301D458D518064629
:100DFC0044F620612046FFF7E3FE6868A968FFF718
:100E0C0001FF00222046297B1346FFF70EFF092E17
:100E1C0005F1080703D10648012103F03AFA2046F0
:100E2C000121BDE8F84003F028BA00BF1C540008AB
:100E3C00002C014013B5204A204B917B188001F007
:100E4C000400C4B20CB10821198018781C4B18701E
:100E5C00B2F817201B4802F59674A1B201801A480B
:100E6C004FF47A71FFF7ACFE18484FF48071FFF71E
:100E7C00C9FE0021012314484FF49672FFF7D5FEEA
:100E8C0001241B23002201A88DF804308DF80520C5
:100E9C008DF806408DF8074001F0ACFC022122468B
:100EAC00094803F004FA2146074803F0F2F9064812
:100EBC00214603F0E2F91CBD38050020500000204B
:100ECC00040500209C050020002C01400008014076
:100EDC0030B585B001A803F0ACF91348134902688A
:100EEC00FF23B2FBF1F4651E114CADF80450204603
:100EFC00002501A9ADF80830ADF80A50ADF8065040
:100F0C0003F03EF80B484FF40071FFF77BFE2046D0
:100F1C000C212A462B46FFF788FE2046012103F0C0
:100F2C00ACF905B030BD00BF8C00002000127A0077
:100F3C0000080040000C0140034B597A212904BFE2
:100F4C000249A1F840007047380500200008004015
:100F5C000128094A4FF48051084B01D1516106E038
:100F6C000228116103D14FF40040586170474FF4CF
:100F7C0000421A61704700BF000C01400010014094
:100F8C0010B50C46FFF7E4FF04F07F010E48090290
:100F9C0002F034FE0C48022102F084FE0028F9D045
:100FAC000948012102F07EFE0028F9D0074B4FF4CE
:100FBC0080524FF400401A61C3F81004024802F04A
:100FCC001FFEC0B210BD00BF00380040000C014035
:100FDC0038B50C46154604F07F04FFF7B9FF05EB56
:100FEC0004210E4881F4004102F008FE0B48022156
:100FFC0002F058FE0028F9D00848012102F052FEF8
:10100C000028F9D0054802F0FBFD054B4FF4805247
:10101C004FF400401A61C3F8100438BD003800408A
:10102C00000C01400A467921FFF7D2BF2621FFF7B9
:10103C00A7BF38B51C4B0546994211D81B4B1C4811
:10104C00B1FBF3F4183C1B4A0918A3B202FB0314BE
:10105C0040F27121A000B0FBF1F294B2402210E0FA
:10106C001548164CB1FBF0F2183A1548091993B211
:10107C0000FB031240F271215400B4FBF1F084B276
:10108C00602203F01F03D21828467521FFF7A0FF3A
:10109C0028467621220AFFF79BFF28467721E2B2E9
:1010AC00BDE83840FFF794BFFF379C1C8096980032
:1010BC0000E4B131806967FF002D310100C8636322
:1010CC0000D3CEFE2DE9F0410E4603210446FFF776
:1010DC0057FF834B042118702046FFF751FF8149BD
:1010EC000022087020460621FFF772FF20460721D8
:1010FC000122FFF76DFF204609217F22FFF768FFD1
:10110C0020460A210522FFF763FF20460B211222FD
:10111C00FFF75EFF20460C211522FFF759FF2046F2
:10112C000D21FD22FFF754FF20460E210022FFF770
:10113C004FFF3EB96C486D4F90F82720142303FBEA
:10114C00027500E06A4D1C2120462A79FFF740FF0A
:10115C001D2120466A79FFF73BFF1E212046AA7904
:10116C00FFF736FF20212046EA79FFF731FF2121D6
:10117C0020462A7AFFF72CFF222120466A7AFFF7B5
:10118C0027FF23212046AA7AFFF722FF242120469D
:10119C00EA7AFFF71DFF252120462A7BFFF718FF6F
:1011AC002A2120466A7BFFF713FF6E212046AA7B7B
:1011BC00FFF70EFF6F212046EA7BFFF709FF702136
:1011CC0020462A7CFFF704FF712120466A7CFFF73A
:1011DC00FFFE72212046AA7CFFF7FAFE8C222046E5
:1011EC003021FFF7F5FE322120460F22FFF7F0FEEB
:1011FC00204633214222FFF7EBFE204634210A22FF
:10120C00FFF7E6FE204635212A22FFF7E1FE2046B5
:10121C0036212D22FFF7DCFE20463721D422FFF7A2
:10122C00D7FE204638210022FFF7D2FE2046392176
:10123C000022FFF7CDFE1EB92B49D1F8097000E052
:10124C002C4F3A254FEA1768294620464246FFF7AD
:10125C00BFFE6A1D0135D1B220464246EDB2FFF702
:10126C00B7FE3F023E2DEDD120464321FF22FFF772
:10127C00AFFE20464421FF22FFF7AAFE204645215F
:10128C00FF22FFF7A5FE20464621FF22FFF7A0FE16
:10129C0020466D210EB1002201E0134B5A7B124DFA
:1012AC00FFF796FE204679210022FFF791FE20469B
:1012BC007A21AA7BFFF78CFE204673210022FFF7D0
:1012CC0087FE204674210022FFF782FE16B9D5F85E
:1012DC00051000E008492046BDE8F041FFF7A9BE23
:1012EC009E0500209F0500205205002000000020D4
:1012FC003C0000201CBEC1DEC092ED1970B503216C
:10130C000446FFF73DFE0E4E042130702046FFF7D9
:10131C0037FE0C4D0721287001222046FFF758FE9E
:10132C00002220460521FFF753FE03212046FFF73C
:10133C0027FE042130702046FFF722FE287070BD76
:10134C009E0500209F05002010B5072104460122B0
:10135C00FFF73EFE20467E212422FFF739FE204671
:10136C0008210322FFF734FE204608210022FFF754
:10137C002FFE204607210522FFF72AFE02222046D7
:10138C000521FFF725FE03212046FFF7F9FD044B4D
:10139C00042118702046FFF7F3FD0249087010BDB8
:1013AC009E0500209F05002010B503210446FFF781
:1013BC00E7FD0A4B042118702046FFF7E1FD0849B0
:1013CC000122087020460721FFF702FE0A2000F0D8
:1013DC002CFA2046BDE81040FFF7B6BF9E05002052
:1013EC009F050020F8B506460D4617460C467A199F
:1013FC00D0B2E3B2984206D030467F21FFF7C0FD51
:10140C0004F8010BF3E7F8BD70B504460D4600F087
:10141C00FBF90A4B064693FBF4F4642CB8BF642426
:10142C0000F0F2F9801BA84206D2204600F0F2F937
:10143C00204600F0EFF9F3E770BD00BF20A10700D4
:10144C0070B54C4D4FF4805603212E610446FFF7C6
:10145C0097FD494B042118702046FFF791FD474931
:10146C000022087006212046FFF7B2FD0721012259
:10147C002046FFF7ADFD09217F222046FFF7A8FD8E
:10148C000A2105222046FFF7A3FD0B21122220463C
:10149C00FFF79EFD0C2115222046FFF799FD0D212B
:1014AC00FD222046FFF794FD0E2100222046FFF777
:1014BC008FFD70212C222046FFF78AFD204630211B
:1014CC000022FFF785FD792100222046FFF780FDE1
:1014DC007A2105222046FFF77BFD7121122220463E
:1014EC00FFF776FD722102222046FFF771FD732172
:1014FC0000222046FFF76CFD742100222046FFF7E6
:10150C0067FD1F4A20461169FFF793FD6D210722E5
:10151C002046FFF75DFD0A2000F087F9072109221C
:10152C002046FFF755FD0A2000F07FF901214FF40A
:10153C00FA70FFF769FF6D2120460422FFF748FD82
:10154C000A2000F072F9FA200121FFF75DFF00225A
:10155C006D212046FFF73CFD0A2000F066F9A02023
:10156C000121FFF751FF204607210122FFF730FD33
:10157C006E6170BD000801409E0500209F05002093
:10158C003805002010B54FF4005001F0DFFA0128A7
:10159C00044605D14FF4005001F0E8FA074B1C70DB
:1015AC004FF4804001F0D2FA0128044605D14FF4E3
:1015BC00804001F0DBFA0148447010BD05050020A5
:1015CC00431EDAB2012A06D8044AD05C20B10021AD
:1015DC00D154012000E0002040B2704705050020E6
:1015EC00F8B50F463E2104461646FFF7F1FC0025E0
:1015FC00EBB2B342204605D27A5D7F21FFF7E8FCBF
:10160C000135F5E704220521FFF7E2FC0321204612
:10161C00FFF7B6FC0F49087004212046FFF7B0FC19
:10162C000D4A0721107020460922FFF7D1FC2046F5
:10163C00FFF7C6FF0028FAD003212046FFF7A0FCD5
:10164C00044B042118702046FFF79AFC02490870DD
:10165C00F8BD00BF9E0500209F0500202DE9F0413C
:10166C00304F86B0022410254FF48058384601A91B
:10167C008DF80750ADF804808DF8064001F077FD29
:10168C008DF80750284D4FF40046284601A9ADF8B7
:10169C0004608DF8064001F06AFD4820C7F8108000
:1016AC004FF4C0432E6102A98DF80B002846ADF80B
:1016BC0008308DF80A4001F05AFD20460D2101F04A
:1016CC0019FE0C2601254FF40051002704A80491A3
:1016DC008DF814708DF815608DF8165001F0DCF94A
:1016EC0020460E2101F006FE4FF4804204A804921D
:1016FC008DF814708DF815608DF8165001F0CCF93A
:10170C000F2028238DF80D008DF80E000DEB060030
:10171C008DF80C308DF80F5001F06CF806B0BDE868
:10172C00F08100BF000C01400010014070B5204C4E
:10173C0086B020461F4E02F077F918204FF4204354
:10174C0001258DF8030069463046ADF800308DF860
:10175C00025001F00CFD4FF480410422ADF8001052
:10176C00304669468DF803208DF8025001F0FFFCDD
:10177C0001A802F0FDF900234FF482704FF40071C0
:10178C00ADF80430ADF80600ADF80E104FF4006261
:10179C001023204601A9ADF80820ADF8103002F056
:1017AC0075F92046294602F0F8F906B070BD00BF65
:1017BC0000380040000C0140024B1A68501C1860A5
:1017CC00704700BF0805002010B50B4A0B49136881
:1017DC0088681468A342F8D1094A11684FF47A72E8
:1017EC00B1FBF2F4201A074CB1FBF4F1B0FBF1F0B1
:1017FC0002FB030010BD00BF0805002010E000E054
:10180C008C00002040420F00014B1868704700BF4D
:10181C000805002038B50446FFF7D6FF0546FFF74C
:10182C00D3FF401BA042FAD338BD10B504462CB1EF
:10183C004FF47A70FFF7EEFF013CF8E710BD30B5BE
:10184C00354D8DB006AC0FCD0FC495E8030084E880
:10185C00030003F06FFA3148012102F06DF844F6F1
:10186C001D20012102F05CF80120014602F04CF829
:10187C00002402F0C1F84FF6FF7329486946ADF811
:10188C0000308DF8034001F072FC2648694601F0E7
:10189C006EFC2548694601F06AFC2448012101F0E0
:1018AC00F7FC06A80219918892790223ADF8001072
:1018BC002058694608348DF802308DF8032001F069
:1018CC0056FC182CEDD116484FF400614FF48053A0
:1018DC004FF4005241614361426101A801F0D0FF15
:1018EC0001991348134AB1FBF0F313485360016894
:1018FC004FF47A73B1FBF3F2501E104B104AF021E7
:10190C00586082F823100020072198601960642029
:10191C00FFF78BFF0DB030BDBC54000807404000F2
:10192C0000080140000C0140001001400004300090
:10193C0040420F00080500208C00002010E000E061
:10194C0000ED00E010B1034A034B1A600348044950
:10195C00C8607047EFBEADDEF04F00200400FA0502
:10196C0000ED00E00A4B0B481A680B491018C860D0
:10197C005868904203D9821A4A60186004E0C2F594
:10198C0080724A60002119600348012101F02DB8D2
:10199C0010050020A00600204400024008B54FF4BA
:1019AC00005001F061F80748002101F01EF8064BC9
:1019BC005A681868824203D0BDE80840FFF7D2BFCE
:1019CC0008BD00BF44000240100500202DE9F0477F
:1019DC00464C92B0064618204FF400734FF00209A3
:1019EC008DF8070001A92046ADF804308DF806905B
:1019FC0001F0BDFB4FF480614822ADF80410204685
:101A0C0001A90E258DF8072001F0B1FB8DF80850C7
:101A1C0002A801250C278DF809508DF80A508DF875
:101A2C000B5000F0E7FE0396314E0DEB0701ADF8BD
:101A3C001670304F00243046ADF81040ADF812400F
:101A4C00ADF81440ADF8184002F0EEFF384600F047
:101A5C0027FF2948DFF8A8A04FF480714FF480537A
:101A6C0020224FF0800808900A91384607A910935D
:101A7C000F921194CDF81CA009940B940D94CDF8F1
:101A8C0030800E9400F084FF3846294600F0ADFFFC
:101A9C002A464021304603F066F8384600F0BAFF7B
:101AAC00164B143F9860384600F0FAFE102009904F
:101ABC0007A93846CDF81CA00B940D94CDF83080B6
:101ACC000E940F9400F064FF384649462A4600F005
:101ADC0097FF304641467C602A4603F044F8304676
:101AEC00294603F01AF812B0BDE8F087000801404F
:101AFC000038014058000240A005002010050020CD
:101B0C000438014008B5044800F084FF034B996881
:101B1C00401A18BF012008BD5800024010050020D3
:101B2C00024B09CBC11A48424841704710050020AE
:101B3C00054B06489A68C2F58071013A08BF4FF40C
:101B4C008072405C9A60704710050020A005002050
:101B5C0008B5FFF7D7FF0028FBD0BDE80840FFF71A
:101B6C00E7BF074B07495A688854501CC2B25A60E9
:101B7C00054B1968CA0701D4FFF7F4BE704700BFC4
:101B8C0010050020A00600204400024010B5441EA1
:101B9C0014F8010F10B1FFF7E4FFF9E710BD00BF17
:101BAC000846FFF7DEBF164B4FF4005210B51A6112
:101BBC0000246420FFF739FE3F20FFF7D2FF1048C6
:101BCC0014F0010F4FF480514FF4006215BF016106
:101BDC00416142610261FFF795FF30B1FFF7A8FF49
:101BEC00522802D10120FFF7ADFE0134322CE0D196
:101BFC00034B4FF400504FF480515861596110BDA4
:101C0C0000080140FF280AD9B0F5007F05D3B0F5D4
:101C1C00407F2CBF0320022070470120704700201A
:101C2C0070472DE9F041002315460C4642082188E7
:101C3C00013329706688DBB26E70A788AF70E188BB
:101C4C00E97027886688A188B4F806C0C7F3012715
:101C5C00CCF3072C47EA8C17C6F3012647EA860615
:101C6C00C1F3012146EA011129710834053593426B
:101C7C00DDD9C3071AD5208880B2FFF7C3FF62886D
:101C8C00074690B2FFF7BEFFA6888046B0B2FFF7BA
:101C9C00B9FFE188064688B2FFF7B4FF4FEA081394
:101CAC0043EA8712104340EA86062E70BDE8F081A5
:101CBC0070B5002344081579167805F0030506EB7A
:101CCC0005250D801679013306F00C055678DBB22C
:101CDC0006EB85154D80167906F03005967806EBE7
:101CEC0005158D80167906F0C005D678053206EB01
:101CFC008505CD800831A342DDD9C00718D51078F1
:101D0C0040F24D13800958430C3008801078C0F312
:101D1C00011058430C3048801078C0F381005843B0
:101D2C000C308880127802F0030043430C33CB80D4
:101D3C0070BDB0F5487F18D3B0F57A7F04D2A0F20D
:101D4C001F33C3F30F107047B0F5FA6F02D2A0F532
:101D5C00777208E040F69703984208D8A0F5F9602E
:101D6C00011101F2F33290B270470020704740F23B
:101D7C00FF3070470B2803D8020102F54A710BE0C3
:101D8C00B0F57D7F02D200F5777105E0B0F5806F7C
:101D9C0004D2A0F27630010188B270474FF409608A
:101DAC0070472DE9F04F89B00021102204A803F0F0
:101DBC005DFA584B4FF400624FF480505A615861F1
:101DCC00554800F0E3FC0120FFF7EEFA534D544B5D
:101DDC0000264FF4FA71B146B0463746B3464CF282
:101DEC00503403910293AA46FFF78CFE00286FD063
:101DFC00FFF79EFE232802D02C2845D105E00027B2
:101E0C000497059706970797EEE70137FFB2042F63
:101E1C00EAD1049C4FF47A7505FB04FA079C059BE8
:101E2C006C436B43069A44F61F618C4202930392F7
:101E3C0018D947F22F50844216D949F63F47BC4275
:101E4C0014D94CF24F35AC4212D94EF65F239C425A
:101E5C0010D9344A94420FD933498C428CBF052295
:101E6C0003220AE0322208E0222206E0262204E0C5
:101E7C00122202E0152200E0012201201C21FFF7B2
:101E8C00A7F85546002720E03038C0B20928ABD857
:101E9C0008AB03EB870252F8101C4FF00A0E0EFB36
:101EAC00010042F8100C9FE74FF47A711F48B5FB04
:101EBC00F1F1CDF800804A46B6FBFBF300F066FC6E
:101ECC0002982D19854200D955464FF0000B8BE72F
:101EDC00BBF1000F0AD101202946FFF7AAF8012017
:101EEC00FFF7A3FC5E46D9464FF0FF08039A9345D3
:101EFC00DAD20120FFF79AF8484528BF81464045C1
:101F0C0038BF804636185FFA89F95FFA88F80BF10A
:101F1C00010B69E7000801402C56000840E19D18B0
:101F2C00C0D1981B6F1101009F8601003A56000822
:101F3C0010B500F043FE342000F0A0FE0C4801F078
:101F4C0069F8042803D0BDE8104000F04FBE0848E3
:101F5C00084900F0D9FF084C084B2046E15800F026
:101F6C00D3FF0428EFD1064804348442F4D1EAE7C5
:101F7C0000F80108DEC0ADDE04F801084E08FE17BB
:101F8C0024F8010838B5114B11481A6882421BD14C
:101F9C00104C114D114954F8043B8C4245F8043B4C
:101FAC00F9D100240E4AE5B2D07BA84209D00A49E7
:101FBC0031F8143098B2FFF7DDFE01462846FEF7E3
:101FCC00A1FE0134102CEDD138BD00BF00F8010882
:101FDC00DEC0ADDE04F801085200002024F8010830
:101FEC003805002070B588B00446FFF70DFC064696
:101FFC0001200146FFF766F80120FFF7D5F93E4BAB
:10200C004FF400621A613D4800F0C0FB002C6BD10C
:10201C000120FFF7D5FA0028F8D0394800F0B6FBBC
:10202C0001200DF103010246FFF7DCF99DF80310C6
:10203C0062291AD1334D292201202946FFF7D2F902
:10204C002A78072A4CD1304800F0A0FB012042210D
:10205C008DF8031002460DF10301FFF7C1FA264B70
:10206C004FF480501861012044E070290CD069298C
:10207C0022D1264800F08AFBFEF7D6F9FEF700FACB
:10208C0049238DF8043006E05024214800F07EFBF3
:10209C008DF8044000241F4B0DF1050203F11801CB
:1020AC0053F8040B8B4242F8040BF9D11B88012026
:1020BC00138001A91B2211E0752911D101201549AA
:1020CC001A22FFF78FF9FEF7DBF9FEF74BFA5522D0
:1020DC0001208DF803200DF103010246FFF780FA71
:1020EC000120FFF731F991E7FFF78EFB801BA0422F
:1020FC008ED3002008B070BD00080140495600087E
:10210C0058560008520500206256000882560008F6
:10211C006E56000838050020F7B501200C21FEF79B
:10212C002FFF044648B9A94800F030FB0120214696
:10213C00FEF7C8FF0120FFF737F90120FFF740FA3F
:10214C0005460220FFF73CFA25B9002800F0AC80C8
:10215C00022500E00125FFF737FB9D4B002218609C
:10216C009C484FF400614FF480561A71416106612E
:10217C00FDF7F0FF984E024631462846FFF732F93C
:10218C00347814F03E040AD091494C79002C53D188
:10219C00904801224FF400564A71066133E08F4F8C
:1021AC008F4997F82830721C03F00700FFF780FD69
:1021BC008C4AE6B2D77BB74207D1854EB079800006
:1021CC00FFF7D8FD0146384609E0A0184178844B4A
:1021DC0033F8112090B2FFF7CDFD014630460134A3
:1021EC00FEF790FD102CE3D1CEE7092E11D17E48DD
:1021FC00214600F0CBFA7A4890F82000FEF71AFE40
:10220C0001340A2C1BD07749E6B263185A78202A7D
:10221C00EBD0212A08D1082E06D17448214600F0B3
:10222C00B5FAFEF755FEEBE77148214600F0AEFA21
:10223C003046FEF7D7FDE3E70023CB710B72664EF9
:10224C00634C317811F0010305D0607A30B9FFF797
:10225C006FFE012301E0627A02B1637201205F4ECE
:10226C00FFF7AEF90220FFF7ABF996F8281001F052
:10227C000803DCB27CB1564A02AE907A06F8040D23
:10228C00012D14BF01200220FFF738F828463146F3
:10229C000422FFF7A5F90120FFF756F80220FFF7FB
:1022AC0053F84B490125CD724E4B9C7A202C08D10A
:1022BC00474A107A012801D1002000E00120FEF7E6
:1022CC0002FD434EF579ADB9FFF77EFA404C236819
:1022DC00E2682679D51A18BF0125012E88BF002582
:1022EC00C61AFDF751FF002D35D0A0F2DC50864206
:1022FC0031D909E0002400212046FEF703FD611CC2
:10230C00CCB2102CF7D1DFE721680120E160FEF799
:10231C008DFE238AA67CC218A072701CC1B295B225
:10232C0014292582A17416D995FBF1F32C2B03D912
:10233C00FF2B28BFFF2300E02D23254C0325A2797A
:10234C00238205FB0236C6F38700A071FEF7F4FD6D
:10235C0000202082A074FFF737FA1D4D04466B79DC
:10236C00244E002B00F0A78029793678B14247D251
:10237C002B68C61A1948FDF707FF00F57A729642CA
:10238C003ED928790126EE7218B91B4D1B492C60D9
:10239C0008600F4D431C11482B712E68FDF7F4FE9D
:1023AC000C4982192A6001204FF400634FF48052CB
:1023BC00E8720B614A61A8791E2801D91E3800E029
:1023CC000020A871A879FEF7B7FD2FE095560008FC
:1023DC001C05002000080140A10700205205002028
:1023EC0052000020380500209F560008B456000803
:1023FC00CA560008A0070020B8070020BC07002020
:10240C00424D434E2879317888420FD141482F688C
:10241C00FDF7BAFE3378E71B5843874206D90122F1
:10242C000020EA72A871FEF787FD2C60374D2979E0
:10243C0000294CD0384B1A6802B3384E3849737E99
:10244C00A01A4B43984219D9FFF79CFDB07B00F0C2
:10245C000202D3B20BB10121E971C30702D52B4A99
:10246C00012010722C4B00212C481960818A2D4AB6
:10247C0002FB01432C4943F001000860274A136911
:10248C002BB3294D286810B3241A20D4917D254AEA
:10249C004A4394421BD90120FEF7D2FF00210120B0
:1024AC00FEF710FE0120FEF74FFFFFF78DF940F00D
:1024BC0001032B600BE02F68C71B1648FDF764FE69
:1024CC0032785043874202D901202C60E8720F48C1
:1024DC00C17AC9B1C47C0E4B651C1978EAB2914221
:1024EC00C27401D80024C474084C0A4DE07C2A182C
:1024FC00D17B0120FEF796FDE37C0220ED18E97BF1
:10250C00FEF790FD0021E172FEBD00BF1C0500200E
:10251C00A007002052050020B80700203805002035
:10252C00A086010040420F00BC070020F0B501243A
:10253C00B0FBF4F58D4201D34C43F9E70026C4B14E
:10254C00B0FBF4F504FB1500B4FBF1F41EB9002D3F
:10255C0001DC002CF4D1092DEFB204DD002A0CBFF4
:10256C005725372500E03025ED1903F8015B0136BE
:10257C00E5E71C70F0BDF0B50124B0FBF4F58D421D
:10258C0001D34C43F9E70026C4B1B0FBF4F504FBCE
:10259C001500B4FBF1F41EB9002D01DC002CF4D1B4
:1025AC00092DEFB204DD002A0CBF5725372500E0BA
:1025BC003025ED1903F8015B0136E5E71C70F0BD21
:1025CC002DE9F041069C06460F46002B0CBF4FF040
:1025DC0020084FF03008204610F8013B0BB9154687
:1025EC0003E0002AFBDD013AF6E7002D04DD30465E
:1025FC004146B847013DF8E714F8011B11B13046CC
:10260C00B847F9E7BDE8F081036803F8011B0360E4
:10261C0070472DE9F04F804687B0894616461D4617
:10262C003178002900F0A880252902D001364046D7
:10263C00A0E07478302C03D002364FF0000A03E08F
:10264C00B4784FF0010A0336A4F130030027092BAC
:10265C0019D8A4F13003DAB2092A05D80A2404FBEC
:10266C00073716F8014BF4E7A4F16100052802D8EE
:10267C00A4F1570305E0A4F14101052903D8A4F105
:10268C0037030A2BEADD6C2C03D116F8014B01221F
:10269C0000E00022642C2AD010D8582C49D006D83F
:1026AC00002C69D0252CBBD14046214662E0632C1E
:1026BC00B6D1404629782C1DC84759E0752C0DD051
:1026CC00782C36D0732CABD12C1D2D684046009540
:1026DC0049463A460023FFF773FF49E02C1D286852
:1026EC000A2112B1002203AB10E003AB1DE02C1D3C
:1026FC00286872B1002806DA2D2240428DF80C2091
:10270C000DF10D0300E003AB0A210022FFF70EFFD1
:10271C000DE0002806DA2D2140428DF80C100DF149
:10272C000D0300E003AB0A210022FFF724FF25462E
:10273C0015E005F1040B2868102142B1B4F15805DD
:10274C006B4253EB050203ABFFF7F0FE06E0B4F16E
:10275C0058035A425A4103ABFFF70DFF5D4603A8DD
:10276C000090494640463A465346FFF729FF57E743
:10277C00254655E7C84753E707B0BDE8F08F024B35
:10278C0019605860704700BF300500200FB407B5C2
:10279C00084904AB53F8042B486809680193FFF708
:1027AC0038FFFFF7BDF90028FBD0BDE80E4004B0A0
:1027BC00704700BF300500200EB40FB505AB53F8C1
:1027CC00042B0190054901A80393FFF722FF019BFD
:1027DC0000221A70BDE80F4003B0704715260008A0
:1027EC0040F0BF60024B40F40031D960704700BF2D
:1027FC0000ED00E0C37810B503B3164CE168CB4391
:10280C00C3F302244178C4F1040201FA02F10F224D
:10281C0022FA04F28478037822400A43110103F16E
:10282C006043CAB203F5614181F8002300780122AC
:10283C0000F01F03410902FA03F007E000780122BF
:10284C0000F01F03410902FA03F02031024B43F858
:10285C00210010BD00ED00E000E100E021F060413E
:10286C0021F07F02014B10439860704700ED00E0AF
:10287C00044B1A6909B1104301E022EA0000186107
:10288C00704700BF00ED00E0044B04281A680CBF31
:10289C0042F0040222F004021A60704710E000E0DB
:1028AC0002684FF6FE73134003602D4B00219842D3
:1028BC00016041608160C16022D02A49884229D0E0
:1028CC00294B984230D02949884237D0284B98421E
:1028DC003ED0284B984206D153F8681C41F4700046
:1028EC0043F8680C70472449884206D151F87C0C97
:1028FC0040F0706241F87C2C7047204B984206D116
:10290C0053F8042C42F00F0143F8041C70471C4987
:10291C00884206D151F8183C43F0F00041F8180CED
:10292C007047184B984206D153F82C2C42F4706126
:10293C0043F82C1C70471449884206D151F8403C8E
:10294C0043F4704041F8400C7047104B984205D14D
:10295C0053F8542C42F4702143F8541C704700BFB8
:10296C00080002401C0002403000024044000240BB
:10297C00580002406C0002408000024008040240F3
:10298C001C0402403004024044040240580402403B
:10299C0070B506688C680D6A26F4FF4222F070064A
:1029AC000A6945EA04034C6913438A692343CC69D9
:1029BC0013431C434B6A44EA03028B6A1A433243A7
:1029CC000260CB680A68496843608260C16070BD70
:1029DC000023036043608360C360036143618361D0
:1029EC00C361036243628362704719B1016841F0AD
:1029FC00010303E002684FF6FE7313400360704757
:102A0C0003680AB1194301E023EA01010160704730
:102A1C0041607047406880B27047C3004CBF044BA4
:102A2C00044B196801420CBF00200120704700BF05
:102A3C000004024000000240C2004CBF014B024B9C
:102A4C00586070470004024000000240C1004CBFB7
:102A5C00034B044B1B6803420CBF00200120704742
:102A6C000004024000000240C3004CBF014B024B6B
:102A7C00586070470004024000000240044B0548B7
:102A8C0000221A605A609A60DA605861704700BF81
:102A9C0000040140FFFF0F00837910B5002B29D0F3
:102AAC001A4B01681C68CA4314401C605C682240C5
:102ABC005A60027902F1804404F582321468214391
:102ACC00116002689C68D1430C409C60DC684079C2
:102ADC0021401028D96006D1986810439860D968B5
:102AEC000A43DA6010BD00F1804303F582331968A4
:102AFC000A4308E00179006801F1804202F5823353
:102B0C001A6822EA00021A6010BD00BF00040140DE
:102B1C0000230C2203600371427183717047024BD6
:102B2C001A6910431861704700040140034B59693E
:102B3C0008420CBF00200120704700BF0004014078
:102B4C00014B5861704700BF00040140064B1A68E6
:102B5C00596910EA010304D010420CBF0020012077
:102B6C0070471846704700BF00040140014B586184
:102B7C00704700BF00040140034B1A6802F0380193
:102B8C0008431860704700BF00200240044B1A68CD
:102B9C0022F0080119601A6810431860704700BFD2
:102BAC0000200240044B1A6822F0100119601A68C8
:102BBC0010431860704700BF00200240034A044BCA
:102BCC0002F188305A605860704700BF2301674596
:102BDC0000200240034A044B02F188305A605860CE
:102BEC00704700BF2301674500200240024B1A6961
:102BFC0042F080001861704700200240024B1A69B5
:102C0C0042F080001861704700200240014BD869E7
:102C1C008008704700200240014B186A704700BFC3
:102C2C0000200240024BD869C0F34000704700BF3F
:102C3C0000200240024B1868C0F34010704700BFE0
:102C4C0000200240044B1A6909B1104301E022EA4A
:102C5C0000001861704700BF002002400128064B9D
:102C6C0003D1D86900F001007047D96808420CBF45
:102C7C0000200120704700BF00200240014BD860AB
:102C8C00704700BF00200240084BDA68D10709D416
:102C9C00D868420708D4D96811F0100F0CBF042073
:102CAC00032070470120704702207047002002402B
:102CBC00084BDA68D20709D4D868400708D4D96819
:102CCC0011F0100F0CBF0420032070470120704737
:102CDC00022070470020024010B50446FFF7E8FFC1
:102CEC00012806D11CB1FFF7E3FF013CF8E70520F2
:102CFC0010BD002C08BF052010BDF8B5124B134CAD
:102D0C00054603F18830A360A0604FF400500E46D6
:102D1C001746FFF7E1FF042814D1216945F0F805A7
:102D2C000B4B2E4341F01002374322614FF40050FD
:102D3C005F80FFF7D1FF052804D0216941F6EF72BF
:102D4C000A402261F8BD00BF230167450020024004
:102D5C0000F8FF1F38B505464FF43020FFF7BCFFD5
:102D6C00042838D11C4B1D4C03F18830A360A060A3
:102D7C00216941F020022261236943F04000206167
:102D8C004FF43020FFF7A8FF04281DD1206941F62D
:102D9C00DF73034023612169114841F01002226165
:102DAC000DB1002300E0A52303804FF43020FFF782
:102DBC0093FF052801D1052038BD084A41F6EF7371
:102DCC0011690B40136138BD0528F4D0216941F617
:102DDC00DF720A40226138BD2301674500200240A2
:102DEC0000F8FF1F10B504464FF40050FFF774FFB6
:102DFC00042842D12149224B01F188309960986016
:102E0C00E4431969E2B241F01000FF2A186104D1C1
:102E1C00C4F30721FF2909D110E01A4B4FF40050DD
:102E2C001A81FFF759FF04281FD1F1E7154A4FF417
:102E3C0000505181FFF750FF042816D1C4F307400E
:102E4C00FF2807D00F4B98814FF40050FFF744FF39
:102E5C0004280AD1240EFF2C01D1042007E00949D3
:102E6C004FF40050CC81FFF737FF052805D0044AFA
:102E7C0041F6EF7311690B40136110BD23016745D7
:102E8C000020024000F8FF1F70B505464FF40050BB
:102E9C000E46FFF721FF042815D10B4B0B4C03F109
:102EAC008830A360A06021694FF4005041F01002FB
:102EBC0022612E80FFF710FF052804D0216941F60E
:102ECC00EF730B40236170BD230167450020024066
:102EDC0070B505464FF400500E46FFF7FDFE042872
:102EEC000ED1084C236943F0010020612E804FF471
:102EFC000050FFF7F1FE226941F6FE71114021618D
:102F0C0070BD00BF0020024073B5002306464FF48D
:102F1C0000500D460193FFF7DFFE04281AD10E4C2A
:102F2C00AAB2206940F0010121614FF400503280B7
:102F3C00FFF7D2FE042808D102360196019B2D0C16
:102F4C001D804FF40050FFF7C7FE216941F6FE7259
:102F5C000A4022617CBD00BF0020024038B5FFF75B
:102F6C0061FE00280CBFA52500254FF43020FFF78B
:102F7C00B3FE04282BD1164B164C03F18830A360FA
:102F8C00A060216941F020022261236943F04000D6
:102F9C0020614FF43020FFF79FFE04280ED12169E9
:102FAC0041F6DF720A40226123690B4943F010009D
:102FBC0020610D804FF40050FFF78EFE052801D1E3
:102FCC00052038BD226941F6EF731340236138BDEB
:102FDC00230167450020024000F8FF1F10B54FF495
:102FEC003020FFF779FE042811D1094C236943F0F6
:102FFC000400206121694FF4302041F0400222612D
:10300C00FFF76AFE216941F6FB730B40236110BD8B
:10301C000020024038B505464FF43020FFF75CFE27
:10302C00042812D1094C236943F002002061656128
:10303C0021694FF4302041F040022261FFF74CFE31
:10304C00216941F6FD730B40236138BD002002401D
:10305C0010B50446FFF72CFE012806D11CB1FFF772
:10306C0027FE013CF8E7052010BD002C08BF052009
:10307C0010BD10B54FF43020FFF7EAFF042811D132
:10308C00094C236943F00400206121694FF430207E
:10309C0041F040022261FFF7DBFF216941F6FB732F
:1030AC000B40236110BD00BF0020024008B5234B2C
:1030BC00984205D10420012100F04AFC042036E09E
:1030CC001F49884205D10820012100F041FC08204D
:1030DC002DE01C4A904205D11020012100F038FC53
:1030EC00102024E0184B984205D12020012100F03B
:1030FC002FFC20201BE01549884205D140200121DE
:10310C0000F026FC402012E0114A904205D18020AC
:10311C00012100F01DFC802009E00E4B98420BD1E0
:10312C004FF48070012100F013FC4FF480700021EB
:10313C00BDE8084000F00CBC08BD00BF0008014011
:10314C00000C014000100140001401400018014027
:10315C00001C0140002001400120014608B500F090
:10316C00F7FB01200021BDE8084000F0F1BBCB7853
:10317C00F0B5DA0648BF8A78098803F00F0548BF16
:10318C00154311F0FF0F1ED004680022012707FA27
:10319C0002F707EA0106BE4211D197004FF00F0C5F
:1031AC000CFA07FC05FA07F724EA0C04282B44EA6E
:1031BC00070401D1466102E0482B08BF06610132C9
:1031CC00082AE3D10460FF2920D94468002202F1C7
:1031DC000806012707FA06F707EA0106BE4211D1D5
:1031EC0097004FF00F0C0CFA07FC05FA07F724EACE
:1031FC000C04282B44EA070401D1466102E0482B59
:10320C0008BF06610132082AE1D14460F0BD4FF6D7
:10321C00FF730221042203808170C270704783689F
:10322C0019420CBF002001207047806880B27047A3
:10323C00C36819420CBF002001207047C06880B2DF
:10324C00704701617047416170470AB10161704775
:10325C0041617047C160704741F480338361816183
:10326C008361836983697047054A10B514684FF60A
:10327C008073234041EA001141EA0300106010BD45
:10328C0000000140014B1860704700BF1C00204239
:10329C000028174B30B500F44014B4BFDB695B68F1
:1032AC00B4F5401F82B207D1114C23F070636568EE
:1032BC0025F0706565600FE0C40205D5C0F30344CA
:1032CC00032505FA04F403E0440D240102FA04F486
:1032DC0023EA040343F0706321B1410D090102FAA2
:1032EC0001F2134300280248B4BFC361436030BDF0
:1032FC000000014001F0030230B592000F2404FAE3
:10330C0002F400FA02F0074B8908023153F82150FD
:10331C0025EA040443F8214053F82140044343F8C0
:10332C00214030BD00000140014B1860704700BFC8
:10333C00DC00204208B50B4B984207D14FF400102B
:10334C00012100F011FB4FF4001006E04FF4800057
:10335C00012100F009FB4FF480000021BDE808407A
:10336C0000F002BB00540040F0B58688044687B0DC
:10337C0026F03F000D46010401A80E0C00F080FA67
:10338C002C4A0399B1FBF2F087B23E43A680238806
:10339C0023F0010213041A0C22802B68264A934254
:1033AC000AD85B00B1FBF3F0013783B2BFB22784BC
:1033BC00032B98BF042320E0EE884BF6FF72964255
:1033CC0004D103225343B1FBF3F305E01922534319
:1033DC00B1FBF3F141F4804399B20A054FF49672B4
:1033EC0008BF41F00101504341F400434FF47A719E
:1033FC0090FBF1F0421C91B22184A383228891B2FC
:10340C0041F001032380208820F4816222F0020124
:10341C000B04AA886989180C41EA02032989AA8934
:10342C00184380B241EA0203208098B2208107B091
:10343C00F0BD00BF40420F00A086010041F288336E
:10344C00002103604BF6FF724FF480438180C280F1
:10345C000181418183817047038819B199B241F090
:10346C00010303E023F001010A04130C03807047ED
:10347C00838819B199B241F4006303E023F400612D
:10348C000A04130C83807047838819B199B241F4F4
:10349C00805303E023F480510A04130C838070479B
:1034AC00038819B199B241F4807303E023F480715D
:1034BC000A04130C03807047038819B199B241F4C4
:1034CC00007303E023F400710A04130C03807047AB
:1034DC00038819B199B241F4806303E023F480614D
:1034EC000A04130C03807047838901F0FE019AB221
:1034FC0022F0FE0341EA030282817047838919B1ED
:10350C0099B241F0010303E023F001010A04130C0A
:10351C0083817047038819B199B241F0400303E0ED
:10352C0023F040010A04130C0380704783889BB27C
:10353C000AB1194301E023EA01018180704701823D
:10354C007047008AC0B2704712B141F0010101E02E
:10355C0001F0FE010182704782B0002301930190BB
:10356C00019809180191019A138898B202B070471A
:10357C00038829B16FEA43436FEA53418AB201E0F1
:10358C0059044A0C02807047B1F5006F038803D1CF
:10359C0099B241F4006303E023F400610A04130CB4
:1035AC0003807047B1F5005F038803D199B241F4F1
:1035BC00005303E023F400510A04130C03807047FA
:1035CC00038819B199B241F4805303E023F480517C
:1035DC000A04130C03807047B1F5006F038803D104
:1035EC0099B241F4006303E023F400610A04130C64
:1035FC0003807047038819B199B241F0200303E0AE
:10360C0023F020010A04130C03807047008BC0F3D5
:10361C0007207047038819B199B241F0100303E0F9
:10362C0023F010010A04130C03807047038819B9A6
:10363C0099B241F0800303E023F080010A04130CDB
:10364C0003807047B1F5804F838B04D023F4804303
:10365C0019040A0C02E099B241F48042828370474B
:10366C00838A008B9AB242EA00430B4023F07F42DC
:10367C00511A484248417047838A008B99B241EAFB
:10368C00004222F07F40704782B0002300930193E8
:10369C000190080F0090009A21F07F4112B1019B1C
:1036AC00143302E0019B090C183301930198026852
:1036BC0011420CBF0020012002B07047C9438AB2EE
:1036CC00828270478388808A9AB283B213EA01009F
:1036DC0006D001F0E06112EA11410CBF002001207C
:1036EC007047C9438AB28282704700BF0D4B1A687B
:1036FC0042F00100186059680B4A0A405A60186879
:10370C0020F0847121F480321A60186820F4802132
:10371C0019605A684FF41F0122F4FE00586099603A
:10372C00704700BF001002400000FFF80B4BB0F5D3
:10373C00803F1A6822F4803119601A6822F48021C3
:10374C00196006D0B0F5802F07D1186840F4A0227C
:10375C0002E0196841F480321A6070470010024090
:10376C00034B1A6822F0F80141EAC0001860704758
:10377C0000100240014B1860704700BF000042422D
:10378C00034B5A6822F47C12104301435960704772
:10379C0000100240014B1860704700BF60004242AD
:1037AC00034B5A6822F0030108435860704700BF6E
:1037BC0000100240024B586800F00C00704700BF2C
:1037CC0000100240034B5A6822F0F0010843586085
:1037DC00704700BF00100240034B5A6822F4E061AE
:1037EC0008435860704700BF00100240034B5A68F2
:1037FC0022F4605141EAC00058607047001002404A
:10380C00044B1A7809B1104301E022EA0000187049
:10381C00704700BF09100240014B1860704700BF91
:10382C00D8004242034B5A6822F440410843586086
:10383C00704700BF00100240064B002201281A708E
:10384C001A7004D0042804D10520187001E01870F7
:10385C007047704720100240014B1860704700BF42
:10386C0080044242024B1A6A10431862704700BF30
:10387C0000100240014B1860704700BF3C044242EC
:10388C001D4B10B55A6802F00C01042901D008290F
:10389C0002D01A4A02600EE05C685968C4F3834295
:1038AC00941CC90302D55B689B0301D5144900E045
:1038BC0012494C430460104A124B5468C4F3031170
:1038CC005C5C016821FA04F141605468C4F3022481
:1038DC001C5D21FA04F484605468C4F3C2241C5D9A
:1038EC0021FA04F1C1605268C2F381329B181A7C30
:1038FC00B1FBF2F1016110BD0010024000127A0020
:10390C0000093D0076000020044B5A6909B11043B0
:10391C0001E022EA00005861704700BF001002402D
:10392C00044B9A6909B1104301E022EA0000986146
:10393C00704700BF00100240044BDA6909B1104314
:10394C0001E022EA0000D861704700BF001002407D
:10395C00044BDA6809B1104301E022EA0000D86098
:10396C00704700BF00100240044B1A6909B11043A4
:10397C0001E022EA00001861704700BF001002400D
:10398C00014B1860704700BF40044242014B186065
:10399C00704700BF4C004242014B1870704700BF8B
:1039AC00071002404309012B074A01D1136803E0B9
:1039BC00022B0CBF136A536A00F01F0023FA00F1AC
:1039CC0001F00100704700BF0010024007B5002352
:1039DC0001933120FFF7E6FF01994A1C0192019BEC
:1039EC00B3F5A06F01D00028F3D03120FFF7DAFF38
:1039FC00003018BF01200EBD024B5A6A42F0807095
:103A0C005862704700100240034B996808420CBF83
:103A1C0000200120704700BF00100240014B1870BD
:103A2C00704700BF0A10024008B5154B98420BD1E5
:103A3C0001214FF48050FFF78BFF4FF48050002191
:103A4C00BDE80840FFF784BF0E49884207D14FF408
:103A5C0080400121FFF788FF4FF4804009E00A4ABB
:103A6C0090420BD14FF400400121FFF77DFF4FF442
:103A7C0000400021BDE80840FFF776BF08BD00BF3D
:103A8C000030014000380040003C00400B8810B56D
:103A9C004C88028823438C8802F441522343CC88FF
:103AAC0023430C8923434C8923438C892343CC899E
:103ABC00098A23431A4393B20380828B22F4006356
:103ACC001A04130C8383018210BD838BF0B5054659
:103ADC0023F47B600C4620F00F010A04160C022321
:103AEC00AE832B84A368A88B022B87B086B223D01D
:103AFC0001A8A788FFF7C4FEE288002F14BF022795
:103B0C000127B2F5007F01994FF00A0001D10B0A91
:103B1C0002E07F01B1FBF7F35843A168B0FBF1F26F
:103B2C00501D83B20A21B3FBF1F000F00102110227
:103B3C00C0F34F0388B200E000209A1E91B2FE2918
:103B4C0028BF002028BF02230343E08822880343B8
:103B5C009BB246EA02012B84638841F40060A28880
:103B6C00A18918431043084380B2A88307B0F0BD65
:103B7C0000230721038043808380C380038143811A
:103B8C008381C3810182704700230222038043801A
:103B9C008380C380826083817047038819B199B296
:103BAC0041F0400303E023F040010A04130C0380AE
:103BBC007047838B19B199B241F4806303E023F40D
:103BCC0080610A04130C838370470909012303FAEB
:103BDC0001F39BB21AB1828891B20B4303E0828845
:103BEC0091B221EA03038380704783889BB20AB1A8
:103BFC00194301E023EA01018180704781817047FC
:103C0C00808980B270474FF6FF639942018803D0D8
:103C1C008AB242F4807103E021F480721304190C0F
:103C2C0001807047838819B199B241F0040303E015
:103C3C0023F004010A04130C83807047038823F4D7
:103C4C00006213041A0C028003889AB2114301809B
:103C5C007047038899B241F4805202807047038800
:103C6C0019B199B241F4005303E023F400510A0452
:103C7C00130C03807047012914BF008B808A80B21B
:103C8C007047008A80B27047B1F5804F038803D12A
:103C9C0099B241F4804303E023F480410A04130CED
:103CAC0003807047038919420CBF00200120704724
:103CBC00C9438AB202817047012301F00F0203FA53
:103CCC0002F210B584880089A4B280B2104006D0EC
:103CDC00090903FA01F31C420CBF0020012010BD9E
:103CEC0001F00F01012303FA01F3DA4391B20181D0
:103CFC00704700BF30B5048C24F001052C04250C52
:103D0C000584048BA5B225F0F3052A4342EA03137C
:103D1C00114A048C9042A4B29DB215D002F50063F6
:103D2C00984211D0B0F1804F0ED0A3F5983290424A
:103D3C000AD002F58063984206D003F58062904267
:103D4C0018BF24F00A0401D124F0020444F0010449
:103D5C0021430583018430BD002C014030B5048C17
:103D6C0024F010052C04250C0584048B058C24F4FC
:103D7C0040742405240D44EA022242EA0333144A17
:103D8C00ADB290429BB212D002F5006290420ED0BE
:103D9C00B0F1804F0BD0A2F59832904207D002F5CB
:103DAC008062904203D002F58062904207D125F0E8
:103DBC00200242F0100545EA011189B204E025F019
:103DCC00A00545F0100529430383018430BD00BFD5
:103DDC00002C014008B55A4B984207D14FF40060B3
:103DEC000121FFF7B5FD4FF40060A2E0B0F1804F68
:103DFC0005D101200146FFF7B7FD012007E051492D
:103E0C00884209D102200121FFF7AEFD02200021DA
:103E1C00BDE80840FFF7A8BD4B4A904205D10420ED
:103E2C000121FFF7A1FD0420F1E7484B984205D191
:103E3C0008200121FFF798FD0820E8E74449884253
:103E4C0005D110200121FFF78FFD1020DFE7414A3B
:103E5C00904205D120200121FFF786FD2020D6E7D6
:103E6C003D4B984207D14FF400500121FFF770FDF4
:103E7C004FF400505DE03949884207D14FF40020DF
:103E8C000121FFF765FD4FF4002052E0344A9042C7
:103E9C0007D14FF480100121FFF75AFD4FF4801029
:103EAC0047E0304B984207D14FF400100121FFF747
:103EBC004FFD4FF400103CE02B49884205D14020C7
:103ECC000121FFF751FD4020A1E7284A904205D17E
:103EDC0080200121FFF748FD802098E7244B984271
:103EEC0007D14FF480700121FFF73EFD4FF4807035
:103EFC008DE72049884207D14FF480300121FFF72C
:103F0C0027FD4FF4803014E01B4A904207D14FF448
:103F1C0000300121FFF71CFD4FF4003009E0174B76
:103F2C0098420BD14FF480200121FFF711FD4FF483
:103F3C0080200021BDE80840FFF70ABD08BD00BF86
:103F4C00002C01400004004000080040000C004020
:103F5C00001000400014004000340140004C0140AF
:103F6C00005001400054014000180040001C00406B
:103F7C000020004000400140004401400048014046
:103F8C00224A038890429BB212D002F50062904202
:103F9C000ED0B0F1804F0BD0A2F59832904207D0E2
:103FAC0002F58062904203D002F58062904203D108
:103FBC004A8823F070031343154A904208D002F547
:103FCC008062904204D023F44073CA889BB213439E
:103FDC0003808B880A8883850C4B028598420FD00E
:103FEC0003F5006290420BD002F54063984207D073
:103FFC0003F58062904203D002F58063984201D1B0
:10400C00097A018601228282704700BF002C014090
:10401C0000100040038C70B523F001021404250C31
:10402C000584068C8388028B9CB222F073052B04CA
:10403C000D881A0C26F0020633042A434E880D898B
:10404C001B0C3543ADB22B43134DA8420FD005F5D5
:10405C000065A8420BD005F54065A84207D005F5D0
:10406C008065A84203D005F58065A8420ED123F0E7
:10407C0008064B898D881E4326F004032B43CE89FA
:10408C008D8924F440743543ADB22C43C9888480A7
:10409C0002838186038470BD002C0140038C30B5F3
:1040AC0023F010021404250C0584038C8288048BE5
:1040BC0023F0200324F4E6452C040D88240C44EA58
:1040CC0005241D042B0C0D8992B243EA05134D886F
:1040DC00A4B243EA0513124D9BB2A84203D005F5D6
:1040EC000065A84215D14D8923F080039BB243EAA9
:1040FC0005134FF6BF751D408B8822F4406245EACC
:10410C000315ABB28D8942EA8502CD8942EA85025C
:10411C0092B2C988828004830187038430BD00BFBA
:10412C00002C0140038C30B523F480721404250C50
:10413C000584038C8288848B23F4007324F073052C
:10414C002C040D88240C2C431D042B0C0D8992B2CD
:10415C0043EA05234D8843EA0523124D9BB2A8423E
:10416C0003D005F50065A84215D14D8923F40063F1
:10417C009BB243EA05234FF6FF351D408B8822F492
:10418C00405245EA0325ABB28D8942EA0512CD892E
:10419C0042EA051292B2C9888280848381870384A3
:1041AC0030BD00BF002C0140038C30B523F480528D
:1041BC001404250C0584038C8288858B94B225F419
:1041CC00E64215042A0C0D8823F4005342EA05221A
:1041DC001D042B0C0D8992B243EA05334D8843EA3A
:1041EC0005330A4D9BB2A84203D005F50065A842E1
:1041FC0005D18D8924F4804444EA8514A4B2C9887D
:10420C0084808283A0F84010038430BD002C0140D0
:10421C004A880B8813438A881343CA8813430A8934
:10422C0013434A89898913430B439BB2A0F844304A
:10423C00704700214FF6FF7383800180C18041805D
:10424C00017270470023038043808380C380038105
:10425C0043818381C3817047002301220380438003
:10426C008280C38003817047002303804380838056
:10427C00C3800381438183817047038819B199B24C
:10428C0041F0010303E023F001010A04130C038045
:10429C007047B0F8443029B16FEA43436FEA534199
:1042AC008AB201E059044A0CA0F844207047838973
:1042BC009BB20AB1194301E023EA010181817047E5
:1042CC00818270470A43A0F84820704783899BB2CB
:1042DC000AB1194301E023EA010181817047038986
:1042EC0023F007010A04130C03817047038923F0A0
:1042FC00700213041A0C1143018101898BB243F033
:10430C0007020281704738B50D4611460122602D17
:10431C00044602D1FFF722FD01E0FFF7EBFC2389F5
:10432C0023F0700001040A0C45EA02032381208962
:10433C0081B241F00702228138BD10B50489E4B284
:10434C0021430A4342EA03239CB2048110BD10B5F9
:10435C000446FFF7F2FF238998B240F48041218193
:10436C0010BD10B50446FFF7E8FF238923F0770052
:10437C0001040A0C42F07703238110BD018582826F
:10438C007047038823F0700213041A0C1143018048
:10439C007047038923F0700213041A0C1143018136
:1043AC00704770B50589048B068C24F44074B6B242
:1043BC0024F0030426F0220625F0070524043243DA
:1043CC002D04240C2D0C44F4807442EA031329436D
:1043DC0044F001049EB201810483068470BD038BFA
:1043EC0023F0700213041A0C114301837047038BE2
:1043FC0023F4E04213041A0C42EA01218BB203832A
:10440C007047838B23F0700213041A0C11438183C1
:10441C007047838B23F4E04213041A0C42EA012107
:10442C008BB283837047038819B199B241F0800332
:10443C0003E023F080010A04130C03807047838887
:10444C0019B199B241F0040303E023F004010A040A
:10445C00130C83807047838819B199B241F008031B
:10446C0003E023F008010A04130C8380704783884F
:10447C0019B199B241F0010303E023F001010A04E0
:10448C00130C83807047038B23F0080213041A0C5F
:10449C00114301837047038B23F4006213041A0C3D
:1044AC0042EA01218BB203837047838B23F008020D
:1044BC0013041A0C114381837047838B23F400621D
:1044CC0013041A0C42EA01218BB283837047038BCD
:1044DC0023F0040213041A0C114301837047038B5D
:1044EC0023F4806213041A0C42EA01218BB2038379
:1044FC007047838B23F0040213041A0C114381833D
:10450C007047838B23F4806213041A0C42EA012156
:10451C008BB283837047038B23F0800213041A0C35
:10452C00114301837047038B09025A0441EA524339
:10453C009AB202837047838B23F0800213041A0C07
:10454C00114381837047838B09025A0441EA524319
:10455C009AB282837047038C23F0020213041A0C64
:10456C00114301847047038C23F0080213041A0CC6
:10457C00114301847047038C23F0200213041A0C9E
:10458C0042EA01118BB203847047038C23F0800242
:10459C0013041A0C42EA01118BB203847047038C8A
:1045AC0023F4007213041A0C42EA01218BB2038427
:1045BC007047038C23F4006213041A0C42EA0121A5
:1045CC008BB203847047038C23F4005213041A0C2F
:1045DC0042EA01318BB203847047012303FA01F3E1
:1045EC0002FA01F210B5048CA4B224EA030303848A
:1045FC00038C42EA03018AB2028410BD042303FA3D
:10460C0001F302FA01F210B5048CA4B224EA0303FC
:10461C000384038C42EA03018AB2028410BD30B5D4
:10462C00012404FA01F4058C00F11803ADB225EA5B
:10463C000404048409B1082906D14908C85820F09B
:10464C007000C850C85809E00439C1F34E01C8586D
:10465C00120220F4E040C850C85892B20243CA502B
:10466C0030BD038819B199B241F0020303E023F085
:10467C0002010A04130C03807047038819B199B224
:10468C0041F0040303E023F004010A04130C03803B
:10469C007047838819B199B241F0800303E023F08D
:1046AC0080010A04130C83807047038823F00802EE
:1046BC0013041A0C028003889AB2114301807047CC
:1046CC00838823F0700213041A0C828083889AB2B8
:1046DC00114381807047038923F0070213041A0CDD
:1046EC00028103899AB2114301817047038923F037
:1046FC00800213041A0C028103899AB211430181BE
:10470C007047818470478185704781867047018727
:10471C00704781877047A0F840107047038B23F0D7
:10472C000C0213041A0C0283038B9AB211430183FB
:10473C007047038B23F4406213041A0C0283038B1F
:10474C009AB242EA01218BB203837047F8B50C464A
:10475C00A2884988B4F800E0054600290CBF02275E
:10476C000027012A14BF012602262389BEF1000F5F
:10477C0011D1FFF7BFFA2846E188FFF7CFFF284693
:10478C00394632462389FFF7E9FAE1882846BDE825
:10479C00F840FFF7CEBFFFF7E1FA2846E188FFF7B4
:1047AC00C8FF2846394632462389FFF7A3FAE18829
:1047BC002846BDE8F840FFF7B1BF838B23F00C020D
:1047CC0013041A0C8283838B9AB211438183704732
:1047DC00838B23F4406213041A0C8283838B9AB26A
:1047EC0042EA01218BB283837047F8B50B880D46E2
:1047FC0004464988AA8843B92B89FFF77BFAE988D4
:10480C002046BDE8F840FFF789BF042B08D12B895F
:10481C00FFF7A4FAE9882046BDE8F840FFF789BF06
:10482C00082B0E462F89008C3BD120F48073180482
:10483C00030C2384A08B83B223F0F30343EA071702
:10484C00364B208CBFB29C4280B247EA020212D097
:10485C0003F500639C420ED0B4F1804F0BD0A3F54E
:10486C0098339C4207D003F580639C4203D003F538
:10487C0080639C4207D120F4007040EA06218BB281
:10488C0043F4807305E020F4206041F4807140EA29
:10489C000103E9882046A2832384BDE8F840FFF792
:1048AC008CBF20F480531804030C2384A38B208C1E
:1048BC0023F440731B051B0D43EA022242EA073323
:1048CC00164A80B294429BB212D002F50062944216
:1048DC000ED0B4F1804F0BD0A2F59832944207D091
:1048EC0002F58062944203D002F58062944207D1B3
:1048FC0020F4005040EA063291B241F4805205E0B7
:10490C0047F6FF52024041F480510A43E9882046A1
:10491C00A3832284BDE8F840FFF75ABF002C014066
:10492C00038823F4407213041A0C028003889AB291
:10493C00114301807047808E80B27047008F80B227
:10494C007047808F80B27047B0F8400080B27047DB
:10495C00808C80B27047008D80B27047038A1942F8
:10496C000CBF002001207047C9438AB202827047F5
:10497C00038A828911EA030092B203D011420CBF60
:10498C00002001207047C9438AB20282704700BFE1
:10499C0008B5204B98420BD101214FF48040FEF713
:1049AC00D7FF4FF480400021BDE80840FEF7D0BF90
:1049BC001949884207D14FF400300121FEF7D4FF8A
:1049CC004FF400301FE0154A904207D14FF480207D
:1049DC000121FEF7C9FF4FF4802014E0104B9842E0
:1049EC0007D14FF400200121FEF7BEFF4FF4002049
:1049FC0009E00C4988420BD14FF480100121FEF7DD
:104A0C00B3FF4FF480100021BDE80840FEF7ACBFA7
:104A1C0008BD00BF00380140004400400048004081
:104A2C00004C004000500040038A30B50D4604464F
:104A3C00EA8898B220F4405111432182A389288935
:104A4C00A98823F4B05340EA0102688923F00C01D1
:104A5C0002430804030C1A4391B2A181A08AAA89CB
:104A6C0083B223F4407187B01143A18201A8FEF7F1
:104A7C0007FF1848A38984420CBF0498039819B205
:104A8C0000294FF019032A6803FB00F001DA5100EA
:104A9C0000E09100B0FBF1F16423B1FBF3F21201E1
:104AAC00100903FB1011A08900B2002806DAC90016
:104ABC003231B1FBF3F303F0070005E009013231A9
:104ACC00B1FBF3F303F00F00024390B2208107B067
:104ADC0030BD00BF0038014000214FF416530C22AA
:104AEC0003608180C18001814281818170470B8884
:104AFC0010B54C88028A23438C88C98892B2234310
:104B0C000B4322F4706213439BB2038210BD00234B
:104B1C00038043808380C3807047838919B199B225
:104B2C0041F4005303E023F400510A04130C838175
:104B3C007047C1F3421310B5012401F01F01A342C9
:104B4C0004FA01F101D10C3004E0022B01D1103038
:104B5C0000E01430036812B143EA010201E023EAD9
:104B6C000102026010BD838A9BB20AB1194301E0B5
:104B7C0023EA010181827047038A23F00F02130498
:104B8C001A0C0282038A9AB21143018270478389FC
:104B9C0023F4006213041A0C828183899AB21143A4
:104BAC0081817047838919B199B241F0020303E006
:104BBC0023F002010A04130C83817047038A23F04B
:104BCC00200213041A0C0282038A9AB21143018246
:104BDC007047038A19B199B241F4804303E023F47E
:104BEC0080410A04130C03827047C905CA0D8280E8
:104BFC0070478088C105C80D7047838999B241F010
:104C0C00010282817047038BDAB20283038B9AB262
:104C1C0042EA012101837047038B03F47F42028334
:104C2C00038B9AB2114301837047838A19B199B2ED
:104C3C0041F0200303E023F020010A04130C8382CB
:104C4C007047838A19B199B241F0100303E023F045
:104C5C0010010A04130C83827047838A19B199B22C
:104C6C0041F0080303E023F008010A04130C8382CB
:104C7C007047838929B16FEA43436FEA53418AB283
:104C8C0001E059044A0C82817047838A19B199B2A8
:104C9C0041F4006303E023F400610A04130C8382E3
:104CAC007047838A23F0040213041A0C8282838ACD
:104CBC009AB2114381827047838A19B199B241F03B
:104CCC00020303E023F002010A04130C83827047F1
:104CDC00038819420CBF002001207047C9438AB2D7
:104CEC000280704710B5C1F34214012201F01F037A
:104CFC00012C02FA03F201D1838903E0022C0CBFD0
:104D0C00038A838A9BB20088134082B243B1090A9A
:104D1C00012303FA01F010420CBF0020012010BD4A
:104D2C00184610BD090A012303FA01F3DA4391B2C4
:104D3C0001807047134A144B516801F00C00042891
:104D4C0001D0082802D0114919600EE05168506852
:104D5C00C1F383410231C00302D55268920301D5DD
:104D6C000B4800E0094841431960064B5A68064B52
:104D7C00C2F3031019181A68087922FA00F21A60A3
:104D8C00704700BF001002408C00002000127A0017
:104D9C0000093D001FB5614B1A6842F00100186014
:104DAC0059685F4A0A405A60186820F0847121F4EF
:104DBC0080321A60186820F4802119605A684FF408
:104DCC001F0122F4FE0000225860996001920292A9
:104DDC000392186840F480311960504B1A6802F441
:104DEC000030029001994A1C0192029818B901995D
:104DFC00B1F5A06FF1D11B6813F4003218BF01227A
:104E0C0002920298012835D14648016841F01002FF
:104E1C000260036823F003010160026842F00203A0
:104E2C000360A0F5805358685860596859605A68F7
:104E3C0042F480605860596821F47C125A605868BA
:104E4C0040F4041159601A6842F0807018601968B7
:104E5C00324A8801FBD5536823F003005060516837
:104E6C0041F0020353602D4A506800F00C010829F0
:104E7C00F9D14DE0294900200B6843F001020A608A
:104E8C000190264B196801F00202039201981A4610
:104E9C00411C0191039818B9019BB3F5A06FF0D197
:104EAC0011681E48890733D51E4A136843F0100158
:104EBC001160136823F003011160136843F00201C1
:104ECC0011604268426043684360416841F480620B
:104EDC004260436823F47C114160426842F46013E1
:104EEC004360016841F0807202600C4803689A01CB
:104EFC00FBD5416821F003024260436843F0020194
:104F0C004160426802F00C03082BFAD1FFF712FF44
:104F1C00054B4FF000629A6005B000BD00100240D6
:104F2C000000FFF80020024000ED00E01D481E4983
:104F3C00026800608A4200F01F80002100F004B873
:104F4C001A4B5B584350043119481A4B42189A4279
:104F5C00FFF4F6AF184A00F003B8002342F8043B04
:104F6C00164B9A42FFF4F9AFFFF714FF00F034F937
:104F7C0000F036F8FFF7FEBF114E124830601248B1
:104F8C00016821F070610160410201600F4C182032
:104F9C0020600F490F4808600F48D0F800D04068D7
:104FAC0000470000F04F0020EFBEADDE3C5700087C
:104FBC0000000020CC040020CC040020C4070020FA
:104FCC00181002400900000004000140140C0140BC
:104FDC00000C01404434434400F0FF1FFFF7FEBFB8
:104FEC0070B5FCF72CFC0A20FCF71FFC32490020A2
:104FFC00FDF7C5FB4FF4E130FCF7E8FC6420FCF74F
:10500C0014FCFBF781FAFBF7ADFA00256C1C284663
:10501C004FF47A71E5B2FBF775FE102DF6D1FCF763
:10502C0085FBFCF71BFBFBF7DDF880B12348FDF794
:10503C00ADFB234B987B00F00801CAB272B14FF460
:10504C007A70FCF7CFFF48B1FBF716F906E04FF486
:10505C007A70FCF7C7FF0028F9D0F5E71948FDF77F
:10506C0095FB0023184D5E1CE818C17BF4B219B1F6
:10507C00172B01D82346F5E7144A154C4FF400665C
:10508C0013702661104E134D3046FBF76FF8124C1F
:10509C0085F8200000210120FCF714F800250120E0
:1050AC00F17BE574FBF7BEFF0120FCF77DF9657120
:1050BC00FDF732F8FCE700BFAD1B0008DF56000817
:1050CC0038050020F656000852050020A0070020E5
:1050DC0000080140520000201C0500202DE9F04181
:1050EC00274C84B025680746D5F84841002C41D0A0
:1050FC0066681F2E1CDD234810B94FF0FF301FE0EF
:10510C004FF4C870039102920193AFF3008003999E
:10511C000446029A019B0028EFD0D5F84861002084
:10512C0060602660C5F84841C4F88801C4F88C0159
:10513C00656847B9A81C013544F82010656000204B
:10514C0004B0BDE8F081012000FA05F0D4F88861C4
:10515C0004EB85080643022FC8F88820C4F8886140
:10516C00C8F80831E6D1D4F88C3143EA0002C4F80F
:10517C008C21DFE705F5A674C5F84841B8E700BFF8
:10518C001457000800000000114B124A70B5981A11
:10519C00831018D0591E02EB83040D4654F8042DCD
:1051AC0001F00106904775B126B154F8040D804703
:1051BC00013D08D054F8043D9847013D54F8041DB6
:1051CC008847013DF6D1BDE8704000F0A5BA00BF9C
:1051DC003C57000838570008F8B5204F204C381BB6
:1051EC00871017D07A1E2368012502F00106984714
:1051FC00AF420FD02EB154F8041F02258847AF429E
:10520C0008D0606880470235A268261D9047083494
:10521C00AF42F6D1134F144C00F078FA3B1B9F10A1
:10522C0018D07D1E216805F0010601258847AF4284
:10523C0011D02EB154F8040F02258047AF420BD089
:10524C00626890470235A368261D98470834AF4220
:10525C00F6D1F8BDF8BDF8BDF8BD00BF3057000859
:10526C00305700083857000830570008F0B484074E
:10527C00034600F08D80541E002A00F08780E5075D
:10528C00CEB211D41A4602F8016B1346154692079A
:10529C0010D0621E002C79D003F8016B14469A07CB
:1052AC001D4607D0013CEDE7034603F8016B9A0756
:1052BC001D46F7D1032C52D9CEB246EA06270F2C45
:1052CC0047EA07432DD9A4F1100217460F2FC2F35A
:1052DC0000162B606B60AB60EB6005F1100216D909
:1052EC003EB1103F136053609360D36010320F2FA8
:1052FC000DD9203F02F11006136053609360D36008
:10530C00136153619361D36120320F2FF1D8A4F153
:10531C00100222F00F0204F00F041032032C15447B
:10532C001DD9271F3E462A46032E42F8043BC7F3DD
:10533C0080070DD927B1043E032E42F8043B07D950
:10534C00174647F8043B083E53603A1D032EF7D826
:10535C00231F23F00302131D04F00304ED18ACB15A
:10536C00C9B2EA432C1905F8011BA318A54203F096
:10537C0001020BD01AB105F8011BA54206D02B4631
:10538C0003F8011B69705D1CA542F8D1F0BC704795
:10539C00054614468EE700BF30B440F2C843C2F253
:1053AC0000031C684FF22D41D4F8A800C5F651013A
:1053BC0001FB00F5D4F8AC2047F62D73C4F69543E9
:1053CC0003FB0255A0FB03010122002369181218EC
:1053DC0043EB0103C4E92A2323F0004030BC70479F
:1053EC00024B13B1024800F005B8704700000000F2
:1053FC00955100080146002002460346FFF76EBE99
:10540C0000070B0C10111500160A1322312900008D
:10541C00000000400008014001000000001C0000DA
:10542C00000000400008014002000000041C0000C5
:10543C00000000400008014004000000081C0000AF
:10544C000000004000080140080000000C1C000097
:10545C00000400400008014040000000001D000056
:10546C00000400400008014080000000041D000002
:10547C0000040040000C014001000000081D000069
:10548C0000040040000C0140020000000C1D000054
:10549C0000080040000C0140000200000C1E00003F
:1054AC00002C01400008014000010000001B01001D
:1054BC000008014000081000000801400010100016
:1054CC000008014000201000464C415348204D413B
:1054DC00474943204641494C0D0A00464C4153482C
:1054EC002053495A45204641494C0D0A00464C412F
:1054FC00534820434845434B53554D204641494C56
:10550C000D0A00464C4153482056455253494F4EC4
:10551C00204641494C0D0A00464C41534820455207
:10552C00524F52206F6E20686561642121210D0A53
:10553C0000464C415348204552524F52206F6E202A
:10554C0062696E642121210D0A00464C41534820AA
:10555C004552415345204641494C45440D0A0046AD
:10556C004C415348204552524F52206F6E20727856
:10557C005F636F6E6669672121210D0A00666C619D
:10558C00736820737563636573732072785F6269E7
:10559C006E645F6D616769630D0A005258636F6ECC
:1055AC0066207265696E69740D0A005258636F6EDD
:1055BC0066206C6F616465640D0A00547970653AFD
:1055CC002025640D0A00706D617025643A202564F5
:1055DC000D0A00466C61673A2025640D0A0072734F
:1055EC0073693A2025640D0A00426672653A2025DB
:1055FC00640D0A00426465613A2025640D0A00427C
:10560C00696E743A2025640D0A006D7379633A2033
:10561C0025640D0A00667366653A2025640D0A0040
:10562C007363616E6E6572206D6F64650A0025642C
:10563C002C25642C25642C25642C0D0A00576169DB
:10564C0074696E672062696E640D0A00476F74207E
:10565C00706B740D0A006461746120676F6F640D68
:10566C000A0053656E64696E6720525820636F6E32
:10567C006669670D0A005265696E6974205258207C
:10568C00636F6E6669670D0A0052582068616E6719
:10569C000D0A00636F6E6669672070706D20636819
:1056AC00616E2025640D0A00636F6E666967207257
:1056BC00737369206368616E2025640D0A00636F43
:1056CC006E6669672070776D206368616E20256453
:1056DC000D0A00476F6F642062696E642064617408
:1056EC006120666F756E640D0A00456E7465726993
:1056FC006E67206E6F726D616C206D6F64650D0A44
:10570C000000000043000000A0000020F8B500BF1E
:10571C00F8BC08BC9E467047F8B500BFF8BC08BC86
:04572C009E467047DE
:08573000ED53000831010008EF
:045738000D01000857
:10573C00C01200001A400AA1204EA5001B1E2752C1
:10574C002C2330008025000005400AA1204EA50026
:10575C0020244EA52C233000004B000006400AD01C
:10576C00009D49007B289D492C233000802500009A
:10577C0005400AA1204EA50020244EA52C23300064
:10578C0010000002000200020002000200020002EF
:10579C0000020002000200020002000200020002ED
:1057AC0000021000409C00000000010203040102F2
:1057BC0003040607080902040608000000A24A04B4
:1057CC0000000000000000000102030406070809A5
:1057DC00000000008C030020F40300205C04002077
:1057EC0000000000000000000000000000000000AD
:1057FC00000000000000000000000000000000009D
:10580C00000000001057000800000000000000001D
:10581C00000000000000000000000000000000007C
:10582C00000000000000000000000000000000006C
:10583C00000000000000000000000000000000005C
:10584C00000000000000000000000000000000004C
:10585C00000000000000000000000000000000003C
:10586C00000000000000000000000000000000002C
:10587C00000000000000000001000000000000001B
:10588C000E33CDAB34126DE6ECDE05000B000000E0
:10589C0000000000000000000000000000000000FC
:1058AC0000000000000000000000000000000000EC
:1058BC0000000000000000000000000000000000DC
:1058CC0000000000000000000000000000000000CC
:0C5BFC000000000000000000A0000020DD
:0400000508004F3967
:00000001FF
